{
  "_format": "hh-sol-artifact-1",
  "contractName": "SeedPhraseHint",
  "sourceName": "contracts/SeedPhraseHint.sol",
  "abi": [
    {
      "inputs": [],
      "stateMutability": "nonpayable",
      "type": "constructor"
    },
    {
      "anonymous": false,
      "inputs": [
        {
          "indexed": true,
          "internalType": "address",
          "name": "owner",
          "type": "address"
        },
        {
          "indexed": true,
          "internalType": "address",
          "name": "approved",
          "type": "address"
        },
        {
          "indexed": true,
          "internalType": "uint256",
          "name": "tokenId",
          "type": "uint256"
        }
      ],
      "name": "Approval",
      "type": "event"
    },
    {
      "anonymous": false,
      "inputs": [
        {
          "indexed": true,
          "internalType": "address",
          "name": "owner",
          "type": "address"
        },
        {
          "indexed": true,
          "internalType": "address",
          "name": "operator",
          "type": "address"
        },
        {
          "indexed": false,
          "internalType": "bool",
          "name": "approved",
          "type": "bool"
        }
      ],
      "name": "ApprovalForAll",
      "type": "event"
    },
    {
      "anonymous": false,
      "inputs": [
        {
          "indexed": true,
          "internalType": "bytes32",
          "name": "role",
          "type": "bytes32"
        },
        {
          "indexed": true,
          "internalType": "bytes32",
          "name": "previousAdminRole",
          "type": "bytes32"
        },
        {
          "indexed": true,
          "internalType": "bytes32",
          "name": "newAdminRole",
          "type": "bytes32"
        }
      ],
      "name": "RoleAdminChanged",
      "type": "event"
    },
    {
      "anonymous": false,
      "inputs": [
        {
          "indexed": true,
          "internalType": "bytes32",
          "name": "role",
          "type": "bytes32"
        },
        {
          "indexed": true,
          "internalType": "address",
          "name": "account",
          "type": "address"
        },
        {
          "indexed": true,
          "internalType": "address",
          "name": "sender",
          "type": "address"
        }
      ],
      "name": "RoleGranted",
      "type": "event"
    },
    {
      "anonymous": false,
      "inputs": [
        {
          "indexed": true,
          "internalType": "bytes32",
          "name": "role",
          "type": "bytes32"
        },
        {
          "indexed": true,
          "internalType": "address",
          "name": "account",
          "type": "address"
        },
        {
          "indexed": true,
          "internalType": "address",
          "name": "sender",
          "type": "address"
        }
      ],
      "name": "RoleRevoked",
      "type": "event"
    },
    {
      "anonymous": false,
      "inputs": [
        {
          "indexed": false,
          "internalType": "address",
          "name": "winner",
          "type": "address"
        }
      ],
      "name": "SeedPhraseGuessed",
      "type": "event"
    },
    {
      "anonymous": false,
      "inputs": [
        {
          "indexed": true,
          "internalType": "address",
          "name": "from",
          "type": "address"
        },
        {
          "indexed": true,
          "internalType": "address",
          "name": "to",
          "type": "address"
        },
        {
          "indexed": true,
          "internalType": "uint256",
          "name": "tokenId",
          "type": "uint256"
        }
      ],
      "name": "Transfer",
      "type": "event"
    },
    {
      "inputs": [],
      "name": "DEFAULT_ADMIN_ROLE",
      "outputs": [
        {
          "internalType": "bytes32",
          "name": "",
          "type": "bytes32"
        }
      ],
      "stateMutability": "view",
      "type": "function"
    },
    {
      "inputs": [],
      "name": "WINNER_ROLE",
      "outputs": [
        {
          "internalType": "bytes32",
          "name": "",
          "type": "bytes32"
        }
      ],
      "stateMutability": "view",
      "type": "function"
    },
    {
      "inputs": [
        {
          "internalType": "address",
          "name": "to",
          "type": "address"
        },
        {
          "internalType": "uint256",
          "name": "tokenId",
          "type": "uint256"
        }
      ],
      "name": "approve",
      "outputs": [],
      "stateMutability": "nonpayable",
      "type": "function"
    },
    {
      "inputs": [
        {
          "internalType": "address",
          "name": "owner",
          "type": "address"
        }
      ],
      "name": "balanceOf",
      "outputs": [
        {
          "internalType": "uint256",
          "name": "",
          "type": "uint256"
        }
      ],
      "stateMutability": "view",
      "type": "function"
    },
    {
      "inputs": [
        {
          "internalType": "address",
          "name": "to",
          "type": "address"
        },
        {
          "internalType": "uint256",
          "name": "quantity",
          "type": "uint256"
        }
      ],
      "name": "batchMint",
      "outputs": [],
      "stateMutability": "payable",
      "type": "function"
    },
    {
      "inputs": [
        {
          "internalType": "uint256",
          "name": "tokenId",
          "type": "uint256"
        }
      ],
      "name": "exists",
      "outputs": [
        {
          "internalType": "bool",
          "name": "",
          "type": "bool"
        }
      ],
      "stateMutability": "view",
      "type": "function"
    },
    {
      "inputs": [
        {
          "internalType": "uint256",
          "name": "tokenId",
          "type": "uint256"
        }
      ],
      "name": "getApproved",
      "outputs": [
        {
          "internalType": "address",
          "name": "",
          "type": "address"
        }
      ],
      "stateMutability": "view",
      "type": "function"
    },
    {
      "inputs": [
        {
          "internalType": "bytes32",
          "name": "role",
          "type": "bytes32"
        }
      ],
      "name": "getRoleAdmin",
      "outputs": [
        {
          "internalType": "bytes32",
          "name": "",
          "type": "bytes32"
        }
      ],
      "stateMutability": "view",
      "type": "function"
    },
    {
      "inputs": [
        {
          "internalType": "bytes32",
          "name": "role",
          "type": "bytes32"
        },
        {
          "internalType": "address",
          "name": "account",
          "type": "address"
        }
      ],
      "name": "grantRole",
      "outputs": [],
      "stateMutability": "nonpayable",
      "type": "function"
    },
    {
      "inputs": [
        {
          "internalType": "bytes32",
          "name": "role",
          "type": "bytes32"
        },
        {
          "internalType": "address",
          "name": "account",
          "type": "address"
        }
      ],
      "name": "hasRole",
      "outputs": [
        {
          "internalType": "bool",
          "name": "",
          "type": "bool"
        }
      ],
      "stateMutability": "view",
      "type": "function"
    },
    {
      "inputs": [
        {
          "internalType": "address",
          "name": "owner",
          "type": "address"
        },
        {
          "internalType": "address",
          "name": "operator",
          "type": "address"
        }
      ],
      "name": "isApprovedForAll",
      "outputs": [
        {
          "internalType": "bool",
          "name": "",
          "type": "bool"
        }
      ],
      "stateMutability": "view",
      "type": "function"
    },
    {
      "inputs": [],
      "name": "name",
      "outputs": [
        {
          "internalType": "string",
          "name": "",
          "type": "string"
        }
      ],
      "stateMutability": "view",
      "type": "function"
    },
    {
      "inputs": [
        {
          "internalType": "uint256",
          "name": "tokenId",
          "type": "uint256"
        }
      ],
      "name": "ownerOf",
      "outputs": [
        {
          "internalType": "address",
          "name": "",
          "type": "address"
        }
      ],
      "stateMutability": "view",
      "type": "function"
    },
    {
      "inputs": [
        {
          "internalType": "bytes32",
          "name": "role",
          "type": "bytes32"
        },
        {
          "internalType": "address",
          "name": "account",
          "type": "address"
        }
      ],
      "name": "renounceRole",
      "outputs": [],
      "stateMutability": "nonpayable",
      "type": "function"
    },
    {
      "inputs": [
        {
          "internalType": "bytes32",
          "name": "role",
          "type": "bytes32"
        },
        {
          "internalType": "address",
          "name": "account",
          "type": "address"
        }
      ],
      "name": "revokeRole",
      "outputs": [],
      "stateMutability": "nonpayable",
      "type": "function"
    },
    {
      "inputs": [
        {
          "internalType": "address",
          "name": "to",
          "type": "address"
        }
      ],
      "name": "safeMint",
      "outputs": [],
      "stateMutability": "payable",
      "type": "function"
    },
    {
      "inputs": [
        {
          "internalType": "address",
          "name": "from",
          "type": "address"
        },
        {
          "internalType": "address",
          "name": "to",
          "type": "address"
        },
        {
          "internalType": "uint256",
          "name": "tokenId",
          "type": "uint256"
        }
      ],
      "name": "safeTransferFrom",
      "outputs": [],
      "stateMutability": "nonpayable",
      "type": "function"
    },
    {
      "inputs": [
        {
          "internalType": "address",
          "name": "from",
          "type": "address"
        },
        {
          "internalType": "address",
          "name": "to",
          "type": "address"
        },
        {
          "internalType": "uint256",
          "name": "tokenId",
          "type": "uint256"
        },
        {
          "internalType": "bytes",
          "name": "data",
          "type": "bytes"
        }
      ],
      "name": "safeTransferFrom",
      "outputs": [],
      "stateMutability": "nonpayable",
      "type": "function"
    },
    {
      "inputs": [
        {
          "internalType": "address",
          "name": "operator",
          "type": "address"
        },
        {
          "internalType": "bool",
          "name": "approved",
          "type": "bool"
        }
      ],
      "name": "setApprovalForAll",
      "outputs": [],
      "stateMutability": "nonpayable",
      "type": "function"
    },
    {
      "inputs": [
        {
          "internalType": "uint256",
          "name": "_price",
          "type": "uint256"
        }
      ],
      "name": "setMintPrice",
      "outputs": [],
      "stateMutability": "nonpayable",
      "type": "function"
    },
    {
      "inputs": [
        {
          "internalType": "bytes4",
          "name": "interfaceId",
          "type": "bytes4"
        }
      ],
      "name": "supportsInterface",
      "outputs": [
        {
          "internalType": "bool",
          "name": "",
          "type": "bool"
        }
      ],
      "stateMutability": "view",
      "type": "function"
    },
    {
      "inputs": [],
      "name": "symbol",
      "outputs": [
        {
          "internalType": "string",
          "name": "",
          "type": "string"
        }
      ],
      "stateMutability": "view",
      "type": "function"
    },
    {
      "inputs": [
        {
          "internalType": "uint256",
          "name": "tokenId",
          "type": "uint256"
        }
      ],
      "name": "tokenURI",
      "outputs": [
        {
          "internalType": "string",
          "name": "",
          "type": "string"
        }
      ],
      "stateMutability": "view",
      "type": "function"
    },
    {
      "inputs": [
        {
          "internalType": "address",
          "name": "from",
          "type": "address"
        },
        {
          "internalType": "address",
          "name": "to",
          "type": "address"
        },
        {
          "internalType": "uint256",
          "name": "tokenId",
          "type": "uint256"
        }
      ],
      "name": "transferFrom",
      "outputs": [],
      "stateMutability": "nonpayable",
      "type": "function"
    },
    {
      "inputs": [],
      "name": "withdraw",
      "outputs": [],
      "stateMutability": "nonpayable",
      "type": "function"
    },
    {
      "stateMutability": "payable",
      "type": "receive"
    }
  ],
  "bytecode": "0x60806040526611c37937e080006008553480156200001c57600080fd5b50604080518082018252601081526f14d9595908141a1c985cd948121a5b9d60821b6020808301918252835180850190945260048452631212539560e21b9084015281519192916200007191600091620005b1565b50805162000087906001906020840190620005b1565b506200009991506000905033620000c1565b620000bb33620000b560076200016660201b62000d0a1760201c565b6200016a565b6200078d565b60008281526006602090815260408083206001600160a01b038516845290915290205460ff16620001625760008281526006602090815260408083206001600160a01b03851684529091529020805460ff19166001179055620001213390565b6001600160a01b0316816001600160a01b0316837f2f8788117e7eff1d82e926ec794901d17c78024a50270940304540a733656f0d60405160405180910390a45b5050565b5490565b620001628282604051806020016040528060008152506200018c60201b60201c565b62000198838362000208565b620001a76000848484620003a9565b620002035760405162461bcd60e51b815260206004820152603260248201526000805160206200290f83398151915260448201527131b2b4bb32b91034b6b83632b6b2b73a32b960711b60648201526084015b60405180910390fd5b505050565b6001600160a01b038216620002605760405162461bcd60e51b815260206004820181905260248201527f4552433732313a206d696e7420746f20746865207a65726f20616464726573736044820152606401620001fa565b6000818152600260205260409020546001600160a01b031615620002c75760405162461bcd60e51b815260206004820152601c60248201527f4552433732313a20746f6b656e20616c7265616479206d696e746564000000006044820152606401620001fa565b620002d760008383600162000512565b6000818152600260205260409020546001600160a01b0316156200033e5760405162461bcd60e51b815260206004820152601c60248201527f4552433732313a20746f6b656e20616c7265616479206d696e746564000000006044820152606401620001fa565b6001600160a01b038216600081815260036020908152604080832080546001019055848352600290915280822080546001600160a01b0319168417905551839291907fddf252ad1be2c89b69c2b068fc378daa952ba7f163c4a11628f55a4df523b3ef908290a45050565b6000620003ca846001600160a01b0316620005a260201b62000d0e1760201c565b156200050657604051630a85bd0160e11b81526001600160a01b0385169063150b7a02906200040490339089908890889060040162000657565b602060405180830381600087803b1580156200041f57600080fd5b505af192505050801562000452575060408051601f3d908101601f191682019092526200044f91810190620006d2565b60015b620004eb573d80801562000483576040519150601f19603f3d011682016040523d82523d6000602084013e62000488565b606091505b508051620004e35760405162461bcd60e51b815260206004820152603260248201526000805160206200290f83398151915260448201527131b2b4bb32b91034b6b83632b6b2b73a32b960711b6064820152608401620001fa565b805181602001fd5b6001600160e01b031916630a85bd0160e11b1490506200050a565b5060015b949350505050565b60018111156200059c576001600160a01b038416156200055c576001600160a01b03841660009081526003602052604081208054839290620005569084906200071b565b90915550505b6001600160a01b038316156200059c576001600160a01b038316600090815260036020526040812080548392906200059690849062000735565b90915550505b50505050565b6001600160a01b03163b151590565b828054620005bf9062000750565b90600052602060002090601f016020900481019282620005e357600085556200062e565b82601f10620005fe57805160ff19168380011785556200062e565b828001600101855582156200062e579182015b828111156200062e57825182559160200191906001019062000611565b506200063c92915062000640565b5090565b5b808211156200063c576000815560010162000641565b600060018060a01b038087168352602081871681850152856040850152608060608501528451915081608085015260005b82811015620006a65785810182015185820160a00152810162000688565b82811115620006b957600060a084870101525b5050601f01601f19169190910160a00195945050505050565b600060208284031215620006e557600080fd5b81516001600160e01b031981168114620006fe57600080fd5b9392505050565b634e487b7160e01b600052601160045260246000fd5b60008282101562000730576200073062000705565b500390565b600082198211156200074b576200074b62000705565b500190565b600181811c908216806200076557607f821691505b602082108114156200078757634e487b7160e01b600052602260045260246000fd5b50919050565b612172806200079d6000396000f3fe60806040526004361061019a5760003560e01c80634f558e79116100e1578063a22cb4651161008a578063c87b56dd11610064578063c87b56dd14610494578063d547741f146104b4578063e985e9c5146104d4578063f4a0a5281461051d57600080fd5b8063a22cb46514610420578063b88d4fde14610440578063bd87d8751461046057600080fd5b806391d14854116100bb57806391d14854146103b057806395d89b41146103f6578063a217fddf1461040b57600080fd5b80634f558e79146103505780636352211e1461037057806370a082311461039057600080fd5b80632f2ff15d1161014357806340d097c31161011d57806340d097c31461030a57806342842e0e1461031d57806343508b051461033d57600080fd5b80632f2ff15d146102b557806336568abe146102d55780633ccfd60b146102f557600080fd5b8063095ea7b311610174578063095ea7b31461023557806323b872dd14610257578063248a9ca31461027757600080fd5b806301ffc9a7146101a657806306fdde03146101db578063081812fc146101fd57600080fd5b366101a157005b600080fd5b3480156101b257600080fd5b506101c66101c1366004611c43565b61053d565b60405190151581526020015b60405180910390f35b3480156101e757600080fd5b506101f061054e565b6040516101d29190611cb8565b34801561020957600080fd5b5061021d610218366004611ccb565b6105e0565b6040516001600160a01b0390911681526020016101d2565b34801561024157600080fd5b50610255610250366004611d00565b610607565b005b34801561026357600080fd5b50610255610272366004611d2a565b61073e565b34801561028357600080fd5b506102a7610292366004611ccb565b60009081526006602052604090206001015490565b6040519081526020016101d2565b3480156102c157600080fd5b506102556102d0366004611d66565b6107b5565b3480156102e157600080fd5b506102556102f0366004611d66565b6107da565b34801561030157600080fd5b50610255610866565b610255610318366004611d92565b6109c1565b34801561032957600080fd5b50610255610338366004611d2a565b610a1f565b61025561034b366004611d00565b610a3a565b34801561035c57600080fd5b506101c661036b366004611ccb565b610ab7565b34801561037c57600080fd5b5061021d61038b366004611ccb565b610ad6565b34801561039c57600080fd5b506102a76103ab366004611d92565b610b3b565b3480156103bc57600080fd5b506101c66103cb366004611d66565b60009182526006602090815260408084206001600160a01b0393909316845291905290205460ff1690565b34801561040257600080fd5b506101f0610bd5565b34801561041757600080fd5b506102a7600081565b34801561042c57600080fd5b5061025561043b366004611dad565b610be4565b34801561044c57600080fd5b5061025561045b366004611dff565b610bef565b34801561046c57600080fd5b506102a77f50d7f4cd6d71ed14bb09203429e7cf4d8d07824ec09d3fa90c05c12b548b07f781565b3480156104a057600080fd5b506101f06104af366004611ccb565b610c6d565b3480156104c057600080fd5b506102556104cf366004611d66565b610cd4565b3480156104e057600080fd5b506101c66104ef366004611edb565b6001600160a01b03918216600090815260056020908152604080832093909416825291909152205460ff1690565b34801561052957600080fd5b50610255610538366004611ccb565b610cf9565b600061054882610d1d565b92915050565b60606000805461055d90611f05565b80601f016020809104026020016040519081016040528092919081815260200182805461058990611f05565b80156105d65780601f106105ab576101008083540402835291602001916105d6565b820191906000526020600020905b8154815290600101906020018083116105b957829003601f168201915b5050505050905090565b60006105eb82610d5b565b506000908152600460205260409020546001600160a01b031690565b600061061282610ad6565b9050806001600160a01b0316836001600160a01b031614156106a15760405162461bcd60e51b815260206004820152602160248201527f4552433732313a20617070726f76616c20746f2063757272656e74206f776e6560448201527f720000000000000000000000000000000000000000000000000000000000000060648201526084015b60405180910390fd5b336001600160a01b03821614806106bd57506106bd81336104ef565b61072f5760405162461bcd60e51b815260206004820152603d60248201527f4552433732313a20617070726f76652063616c6c6572206973206e6f7420746f60448201527f6b656e206f776e6572206f7220617070726f76656420666f7220616c6c0000006064820152608401610698565b6107398383610dbf565b505050565b6107483382610e3a565b6107aa5760405162461bcd60e51b815260206004820152602d60248201527f4552433732313a2063616c6c6572206973206e6f7420746f6b656e206f776e6560448201526c1c881bdc88185c1c1c9bdd9959609a1b6064820152608401610698565b610739838383610eb9565b6000828152600660205260409020600101546107d0816110cc565b61073983836110d6565b6001600160a01b03811633146108585760405162461bcd60e51b815260206004820152602f60248201527f416363657373436f6e74726f6c3a2063616e206f6e6c792072656e6f756e636560448201527f20726f6c657320666f722073656c6600000000000000000000000000000000006064820152608401610698565b6108628282611178565b5050565b7f50d7f4cd6d71ed14bb09203429e7cf4d8d07824ec09d3fa90c05c12b548b07f7610890816110cc565b600073d167863cb021a21b7aeb4d382cc64e038c2b90b26108fc6108c060646108ba4760056111fb565b90611207565b6040518115909202916000818181858888f1935050505090508061090e5760405162461bcd60e51b8152602060048201526005602482015264085cd95b9960da1b6044820152606401610698565b60405133904780156108fc02916000818181858888f193505050509050806109605760405162461bcd60e51b8152602060048201526005602482015264085cd95b9960da1b6044820152606401610698565b61098a7f50d7f4cd6d71ed14bb09203429e7cf4d8d07824ec09d3fa90c05c12b548b07f733611178565b6040513381527f69f5abc9635a7ab83ad3c9565b548ed54eff3b9d1adc289ec21709285390bfd39060200160405180910390a15050565b6008543410156109fc5760405162461bcd60e51b81526020600482015260066024820152652176616c756560d01b6044820152606401610698565b610a0a600780546001019055565b610a1c81610a1760075490565b611213565b50565b61073983838360405180602001604052806000815250610bef565b600854610a4790826111fb565b341015610a7f5760405162461bcd60e51b81526020600482015260066024820152652176616c756560d01b6044820152606401610698565b60005b8181101561073957610a98600780546001019055565b610aa583610a1760075490565b80610aaf81611f56565b915050610a82565b6000818152600260205260408120546001600160a01b03161515610548565b6000818152600260205260408120546001600160a01b0316806105485760405162461bcd60e51b815260206004820152601860248201527f4552433732313a20696e76616c696420746f6b656e20494400000000000000006044820152606401610698565b60006001600160a01b038216610bb95760405162461bcd60e51b815260206004820152602960248201527f4552433732313a2061646472657373207a65726f206973206e6f74206120766160448201527f6c6964206f776e657200000000000000000000000000000000000000000000006064820152608401610698565b506001600160a01b031660009081526003602052604090205490565b60606001805461055d90611f05565b61086233838361122d565b610bf93383610e3a565b610c5b5760405162461bcd60e51b815260206004820152602d60248201527f4552433732313a2063616c6c6572206973206e6f7420746f6b656e206f776e6560448201526c1c881bdc88185c1c1c9bdd9959609a1b6064820152608401610698565b610c67848484846112fc565b50505050565b6060610c7882610d5b565b6000610c8261137a565b90506000815111610ca25760405180602001604052806000815250610ccd565b80610cac8461139a565b604051602001610cbd929190611f71565b6040516020818303038152906040525b9392505050565b600082815260066020526040902060010154610cef816110cc565b6107398383611178565b6000610d04816110cc565b50600855565b5490565b6001600160a01b03163b151590565b60006001600160e01b031982167f7965db0b000000000000000000000000000000000000000000000000000000001480610548575061054882611444565b6000818152600260205260409020546001600160a01b0316610a1c5760405162461bcd60e51b815260206004820152601860248201527f4552433732313a20696e76616c696420746f6b656e20494400000000000000006044820152606401610698565b6000818152600460205260409020805473ffffffffffffffffffffffffffffffffffffffff19166001600160a01b0384169081179091558190610e0182610ad6565b6001600160a01b03167f8c5be1e5ebec7d5bd14f71427d1e84f3dd0314c0f7b2291e5b200ac8c7c3b92560405160405180910390a45050565b600080610e4683610ad6565b9050806001600160a01b0316846001600160a01b03161480610e8d57506001600160a01b0380821660009081526005602090815260408083209388168352929052205460ff165b80610eb15750836001600160a01b0316610ea6846105e0565b6001600160a01b0316145b949350505050565b826001600160a01b0316610ecc82610ad6565b6001600160a01b031614610f305760405162461bcd60e51b815260206004820152602560248201527f4552433732313a207472616e736665722066726f6d20696e636f72726563742060448201526437bbb732b960d91b6064820152608401610698565b6001600160a01b038216610fab5760405162461bcd60e51b8152602060048201526024808201527f4552433732313a207472616e7366657220746f20746865207a65726f2061646460448201527f72657373000000000000000000000000000000000000000000000000000000006064820152608401610698565b610fb883838360016114df565b826001600160a01b0316610fcb82610ad6565b6001600160a01b03161461102f5760405162461bcd60e51b815260206004820152602560248201527f4552433732313a207472616e736665722066726f6d20696e636f72726563742060448201526437bbb732b960d91b6064820152608401610698565b6000818152600460209081526040808320805473ffffffffffffffffffffffffffffffffffffffff199081169091556001600160a01b0387811680865260038552838620805460001901905590871680865283862080546001019055868652600290945282852080549092168417909155905184937fddf252ad1be2c89b69c2b068fc378daa952ba7f163c4a11628f55a4df523b3ef91a4505050565b610a1c8133611567565b60008281526006602090815260408083206001600160a01b038516845290915290205460ff166108625760008281526006602090815260408083206001600160a01b03851684529091529020805460ff191660011790556111343390565b6001600160a01b0316816001600160a01b0316837f2f8788117e7eff1d82e926ec794901d17c78024a50270940304540a733656f0d60405160405180910390a45050565b60008281526006602090815260408083206001600160a01b038516845290915290205460ff16156108625760008281526006602090815260408083206001600160a01b0385168085529252808320805460ff1916905551339285917ff6391f5c32d9c69d2a47ea670b442974b53935d1edc7fd64eb21e047a839171b9190a45050565b6000610ccd8284611fa0565b6000610ccd8284611fbf565b6108628282604051806020016040528060008152506115dc565b816001600160a01b0316836001600160a01b0316141561128f5760405162461bcd60e51b815260206004820152601960248201527f4552433732313a20617070726f766520746f2063616c6c6572000000000000006044820152606401610698565b6001600160a01b03838116600081815260056020908152604080832094871680845294825291829020805460ff191686151590811790915591519182527f17307eab39ab6107e8899845ad3d59bd9653f200f220920489ca2b5937696c31910160405180910390a3505050565b611307848484610eb9565b6113138484848461165a565b610c675760405162461bcd60e51b815260206004820152603260248201527f4552433732313a207472616e7366657220746f206e6f6e20455243373231526560448201527131b2b4bb32b91034b6b83632b6b2b73a32b960711b6064820152608401610698565b606060405180606001604052806025815260200161211860259139905090565b606060006113a7836117b2565b600101905060008167ffffffffffffffff8111156113c7576113c7611de9565b6040519080825280601f01601f1916602001820160405280156113f1576020820181803683370190505b5090508181016020015b600019017f3031323334353637383961626364656600000000000000000000000000000000600a86061a8153600a85049450846114375761143c565b6113fb565b509392505050565b60006001600160e01b031982167f80ac58cd0000000000000000000000000000000000000000000000000000000014806114a757506001600160e01b031982167f5b5e139f00000000000000000000000000000000000000000000000000000000145b8061054857507f01ffc9a7000000000000000000000000000000000000000000000000000000006001600160e01b0319831614610548565b6001811115610c67576001600160a01b03841615611525576001600160a01b0384166000908152600360205260408120805483929061151f908490611fe1565b90915550505b6001600160a01b03831615610c67576001600160a01b0383166000908152600360205260408120805483929061155c908490611ff8565b909155505050505050565b60008281526006602090815260408083206001600160a01b038516845290915290205460ff166108625761159a81611894565b6115a58360206118a6565b6040516020016115b6929190612010565b60408051601f198184030181529082905262461bcd60e51b825261069891600401611cb8565b6115e68383611a87565b6115f3600084848461165a565b6107395760405162461bcd60e51b815260206004820152603260248201527f4552433732313a207472616e7366657220746f206e6f6e20455243373231526560448201527131b2b4bb32b91034b6b83632b6b2b73a32b960711b6064820152608401610698565b60006001600160a01b0384163b156117a757604051630a85bd0160e11b81526001600160a01b0385169063150b7a029061169e903390899088908890600401612091565b602060405180830381600087803b1580156116b857600080fd5b505af19250505080156116e8575060408051601f3d908101601f191682019092526116e5918101906120cd565b60015b61178d573d808015611716576040519150601f19603f3d011682016040523d82523d6000602084013e61171b565b606091505b5080516117855760405162461bcd60e51b815260206004820152603260248201527f4552433732313a207472616e7366657220746f206e6f6e20455243373231526560448201527131b2b4bb32b91034b6b83632b6b2b73a32b960711b6064820152608401610698565b805181602001fd5b6001600160e01b031916630a85bd0160e11b149050610eb1565b506001949350505050565b6000807a184f03e93ff9f4daa797ed6e38ed64bf6a1f01000000000000000083106117fb577a184f03e93ff9f4daa797ed6e38ed64bf6a1f010000000000000000830492506040015b6d04ee2d6d415b85acef81000000008310611827576d04ee2d6d415b85acef8100000000830492506020015b662386f26fc10000831061184557662386f26fc10000830492506010015b6305f5e100831061185d576305f5e100830492506008015b612710831061187157612710830492506004015b60648310611883576064830492506002015b600a83106105485760010192915050565b60606105486001600160a01b03831660145b606060006118b5836002611fa0565b6118c0906002611ff8565b67ffffffffffffffff8111156118d8576118d8611de9565b6040519080825280601f01601f191660200182016040528015611902576020820181803683370190505b5090507f300000000000000000000000000000000000000000000000000000000000000081600081518110611939576119396120ea565b60200101906001600160f81b031916908160001a9053507f780000000000000000000000000000000000000000000000000000000000000081600181518110611984576119846120ea565b60200101906001600160f81b031916908160001a90535060006119a8846002611fa0565b6119b3906001611ff8565b90505b6001811115611a38577f303132333435363738396162636465660000000000000000000000000000000085600f16601081106119f4576119f46120ea565b1a60f81b828281518110611a0a57611a0a6120ea565b60200101906001600160f81b031916908160001a90535060049490941c93611a3181612100565b90506119b6565b508315610ccd5760405162461bcd60e51b815260206004820181905260248201527f537472696e67733a20686578206c656e67746820696e73756666696369656e746044820152606401610698565b6001600160a01b038216611add5760405162461bcd60e51b815260206004820181905260248201527f4552433732313a206d696e7420746f20746865207a65726f20616464726573736044820152606401610698565b6000818152600260205260409020546001600160a01b031615611b425760405162461bcd60e51b815260206004820152601c60248201527f4552433732313a20746f6b656e20616c7265616479206d696e746564000000006044820152606401610698565b611b506000838360016114df565b6000818152600260205260409020546001600160a01b031615611bb55760405162461bcd60e51b815260206004820152601c60248201527f4552433732313a20746f6b656e20616c7265616479206d696e746564000000006044820152606401610698565b6001600160a01b0382166000818152600360209081526040808320805460010190558483526002909152808220805473ffffffffffffffffffffffffffffffffffffffff19168417905551839291907fddf252ad1be2c89b69c2b068fc378daa952ba7f163c4a11628f55a4df523b3ef908290a45050565b6001600160e01b031981168114610a1c57600080fd5b600060208284031215611c5557600080fd5b8135610ccd81611c2d565b60005b83811015611c7b578181015183820152602001611c63565b83811115610c675750506000910152565b60008151808452611ca4816020860160208601611c60565b601f01601f19169290920160200192915050565b602081526000610ccd6020830184611c8c565b600060208284031215611cdd57600080fd5b5035919050565b80356001600160a01b0381168114611cfb57600080fd5b919050565b60008060408385031215611d1357600080fd5b611d1c83611ce4565b946020939093013593505050565b600080600060608486031215611d3f57600080fd5b611d4884611ce4565b9250611d5660208501611ce4565b9150604084013590509250925092565b60008060408385031215611d7957600080fd5b82359150611d8960208401611ce4565b90509250929050565b600060208284031215611da457600080fd5b610ccd82611ce4565b60008060408385031215611dc057600080fd5b611dc983611ce4565b915060208301358015158114611dde57600080fd5b809150509250929050565b634e487b7160e01b600052604160045260246000fd5b60008060008060808587031215611e1557600080fd5b611e1e85611ce4565b9350611e2c60208601611ce4565b925060408501359150606085013567ffffffffffffffff80821115611e5057600080fd5b818701915087601f830112611e6457600080fd5b813581811115611e7657611e76611de9565b604051601f8201601f19908116603f01168101908382118183101715611e9e57611e9e611de9565b816040528281528a6020848701011115611eb757600080fd5b82602086016020830137600060208483010152809550505050505092959194509250565b60008060408385031215611eee57600080fd5b611ef783611ce4565b9150611d8960208401611ce4565b600181811c90821680611f1957607f821691505b60208210811415611f3a57634e487b7160e01b600052602260045260246000fd5b50919050565b634e487b7160e01b600052601160045260246000fd5b6000600019821415611f6a57611f6a611f40565b5060010190565b60008351611f83818460208801611c60565b835190830190611f97818360208801611c60565b01949350505050565b6000816000190483118215151615611fba57611fba611f40565b500290565b600082611fdc57634e487b7160e01b600052601260045260246000fd5b500490565b600082821015611ff357611ff3611f40565b500390565b6000821982111561200b5761200b611f40565b500190565b7f416363657373436f6e74726f6c3a206163636f756e7420000000000000000000815260008351612048816017850160208801611c60565b7f206973206d697373696e6720726f6c65200000000000000000000000000000006017918401918201528351612085816028840160208801611c60565b01602801949350505050565b60006001600160a01b038087168352808616602084015250836040830152608060608301526120c36080830184611c8c565b9695505050505050565b6000602082840312156120df57600080fd5b8151610ccd81611c2d565b634e487b7160e01b600052603260045260246000fd5b60008161210f5761210f611f40565b50600019019056fe68747470733a2f2f6170692e736565647068726173652e70696374757265732f6d6574612fa26469706673582212203cae7c8605a90bc9aa1696fd23f6a43b79be2ca1ab7d6f298a6d42d74c66269364736f6c634300080900334552433732313a207472616e7366657220746f206e6f6e204552433732315265",
  "linkReferences": {},
  "deployedLinkReferences": {}
}